:100000000C9426010C943A010C943A010C943A0198
:100010000C943A010C943A010C943A010C943A0174
:100020000C943A010C943A010C943A010C943A0164
:100030000C943A010C943A010C943A010C943A0154
:100040000C943A010C943A010C943A010C943A0144
:100050000C943A010C943A010C943A010C9454011A
:100060000C943A010C943A010C943A010C943A0124
:100070000C943A010C943A010C943A010C943A0114
:100080000C943A010C943A010C943A010C943A0104
:100090000C943A010C943A010C943A010C943A01F4
:1000A0000C943A010C943A010C943A010C943A01E4
:1000B0000C943A010C943A010C943A010C943A01D4
:1000C0000C943A010C943A010C943A010C943A01C4
:1000D0000C943A010C943A010C943A010C943A01B4
:1000E0000C943A015E0261025402580298026502C1
:1000F00069026F02730277027D0281028502980213
:100100008B028F0293020C9469020C9477020C9478
:1001100061020C9465020C948B020C9454020C94B2
:100120006F020C9485020C9473020C9498020C9448
:100130008F020C947D020C9493020C945E020C943A
:1001400081020C9458020000090A02080B0C0D07EA
:100150000603040100000000000000000000000091
:10016000000000000000000000000000000000008F
:10017000000011100F00000000000000000000004F
:10018000000000000000000000000000010210203C
:1001900020080810204010204080020102010804BD
:1001A0000201010204081020408080402010080451
:1001B00002018004020180402010080402010804AA
:1001C00002010102040810204080010204081020EE
:1001D0004080050505050705080808080202020217
:1001E0000A0A0808040404040101010101010101D3
:1001F0000303030303030303040707070C0C0C0C9E
:100200000C0C0C0C02020202060606060606060686
:100210000B0B0B0B0B0B0B0B000022002500280017
:100220002B002E00310034000201000005010801FE
:100230000B0100002100240027002A002D003000BF
:10024000330001010000040107010A0111241FBE4F
:10025000CFEFD1E2DEBFCDBF00E00CBF22E0A0E0D7
:10026000B2E001C01D92A930B207E1F70E94080375
:100270000C941B030C94000061E08DE00C94990237
:1002800061E08DE00E94D20264E670E080E090E0E0
:100290000E94C10160E08DE00E94D20264E873E038
:1002A00080E090E00C94C1011F920F920FB60F9264
:1002B00011242F933F938F939F93AF93BF9380917C
:1002C000010290910202A0910302B09104023091C8
:1002D000000223E0230F2D3720F40196A11DB11D4C
:1002E00005C026E8230F0296A11DB11D2093000230
:1002F0008093010290930202A0930302B093040240
:100300008091050290910602A0910702B091080227
:100310000196A11DB11D8093050290930602A09342
:100320000702B0930802BF91AF919F918F913F91C7
:100330002F910F900FBE0F901F9018953FB7F89414
:100340008091050290910602A0910702B0910802E7
:1003500026B5A89B05C02F3F19F00196A11DB11D20
:100360003FBF6627782F892F9A2F620F711D811D3D
:10037000911D42E0660F771F881F991F4A95D1F79C
:100380000895CF92DF92EF92FF92CF93DF936B01AC
:100390007C010E949E01EB01C114D104E104F1042F
:1003A00079F00E949E016C1B7D0B683E7340A0F3A8
:1003B00081E0C81AD108E108F108C851DC4FECCF40
:1003C000DF91CF91FF90EF90DF90CF9008957894D8
:1003D00084B5826084BD84B5816084BD85B582604A
:1003E00085BD85B5816085BDEEE6F0E080818160E8
:1003F0008083E1E8F0E010828081826080838081E8
:1004000081608083E0E8F0E0808181608083E1EBBF
:10041000F0E0808184608083E0EBF0E080818160A7
:100420008083E1E9F0E08081826080838081816067
:100430008083E0E9F0E0808181608083E1EAF0E0A0
:10044000808182608083808181608083E0EAF0E047
:10045000808181608083E1E2F1E08081826080833D
:10046000808181608083E0E2F1E08081816080832F
:10047000EAE7F0E08081846080838081826080830D
:100480008081816080838081806880831092C10038
:10049000089590E0FC013197E131F10508F048C082
:1004A000EE58FF4F0C941503809180008F7703C0A6
:1004B000809180008F7D80938000089584B58F7730
:1004C00002C084B58F7D84BD08958091B0008F7780
:1004D00003C08091B0008F7D8093B000089580911B
:1004E00090008F7707C0809190008F7D03C080912E
:1004F0009000877F8093900008958091A0008F776F
:1005000007C08091A0008F7D03C08091A000877FED
:100510008093A0000895809120018F7707C080917B
:1005200020018F7D03C080912001877F809320016F
:100530000895CF93DF9390E0FC01E457FE4F2491A0
:10054000FC01EE52FE4F8491882349F190E0880F20
:10055000991FFC01EE5CFD4FA591B491885E9D4F03
:10056000FC01C591D4919FB7611108C0F8948C919A
:10057000209582238C93888182230AC0623051F4B3
:10058000F8948C91322F309583238C938881822B21
:10059000888304C0F8948C91822B8C939FBFDF9149
:1005A000CF9108950F931F93CF93DF931F92CDB7F1
:1005B000DEB7282F30E0F901EA5BFE4F8491F901A4
:1005C000E457FE4F1491F901EE52FE4F04910023BF
:1005D000C9F0882321F069830E9449026981E02FD4
:1005E000F0E0EE0FFF1FE85EFD4FA591B4919FB7BD
:1005F000F8948C91611103C01095812301C0812B67
:100600008C939FBF0F90DF91CF911F910F91089511
:100610000E94E7010E943C01C0E0D0E00E9440013E
:100620002097E1F30E940000F9CFEE0FFF1F059025
:0A063000F491E02D1994F894FFCF27
:00000001FF
